:100000000C9481010C94AB010C94AB010C94AB01EA
:100010000C94AB010C94AB010C94AB010C94AB01B0
:100020000C94AB010C94331A0C94AC190C94AB01E6
:100030000C94AB010C94AB010C94AB010C94AB0190
:100040000C94931A0C94AB010C94FA1D0C94301E72
:100050000C94AB010C94AB010C94AB010C94AB0170
:100060000C94AB010C94AB010C94AB010C94AB0160
:100070000C94AB010C94AB010C94AB010C94AB0150
:100080000C94AB010C94AB010C94AB01BA1BBA1BE2
:10009000F61BBF1BC51BCB1BD31BF61BF61BD81BAC
:1000A000E21BEC1B171C171C281C091C0C1C101C29
:1000B000131C281C281C1B1C1F1C231C00000300D5
:1000C000060008000B000E001100140017001900B4
:1000D0001C001F002200250028002A002D003000EF
:1000E0003300360039003B003E0041004400470029
:1000F0004A004C004F005200550058005B005D0064
:1001000060006300660069006B006E00710074009F
:1001100077007A007C007F008200850088008B00D9
:100120008D0090009300960099009C009E00A10015
:10013000A400A700AA00AD00AF00B200B500B8004F
:10014000BB00BE00C000C300C600C900CC00CE008A
:10015000D100D400D700DA00DD00DF00E200E500C6
:10016000E800EB00EE00F000F300F600F900FC0000
:10017000FE000101040107010A010D011001120135
:10018000150118011B011E0121012301260129016E
:100190002C012F013201340137013A013D014001A8
:1001A0004201450148014B014E01510153015601E5
:1001B00059015C015F016201640167016A016D011F
:1001C00070017301750178017B017E018101840159
:1001D000860189018C018F019201950197019A0195
:1001E0009D01A001A301A501A801AB01AE01B101D0
:1001F000B401B601B901BC01BF01C201C501C7010B
:10020000CA01CD01D001D301D601D801DB01DE0145
:10021000E101E401E701E901EC01EF01F201F5017F
:10022000F801FA01FD0100000000000000000000DC
:1002300000000000000000000000000000000000BE
:10024000000002040507000007070B0C0000000077
:10025000000000000000000000000001020408107F
:100260002040800102040810204080010204081090
:100270002040800102040810204080010204081080
:100280002040800102040810204080010204081070
:100290000404040404040404030303030303030326
:1002A0000101010101010101020202020202020236
:1002B00005050505050505050606060606060606E6
:1002C0000707070707000039003600330030002118
:1002D000002000630000003B00380035003200239E
:1002E000006200650000003A00370034003100224F
:1002F0000061006400008B0493099F0C8D16641E3E
:10030000C50D11241FBECFEFD0E1DEBFCDBF14E07D
:10031000A0E0B1E0E0E6F9E400E00BBF02C0079026
:100320000D92A63EB107D9F728E0A6EEB4E001C0D1
:100330001D92A636B207E1F711E0C0E8D1E004C093
:100340002197FE010E942B22CB37D107C9F70E94CB
:10035000A7200C94A3240C94000021E0FC0120832E
:10036000118208950E94090581110CC040910E066A
:1003700050910F0660911C0170911D018FE596E070
:100380000C9439160895CF92DF92EF92FF920F935B
:100390001F93CF93DF93EC018881811104C021E981
:1003A000C22ED12C03C094EBC92ED12CE12CF12C00
:1003B0000091FA041091FB042091FC043091FD049B
:1003C0004091FE045091FF04609100057091010579
:1003D00080910205909103050E94440476010091EA
:1003E00004051091050520910605309107054091FF
:1003F00008055091090560910A0570910B058091DF
:100400000C0590910D050E94440481E0898364EFFE
:1004100071E080E090E00E940F1B8881882381F1C9
:1004200086E9E82EF12C0091040510910505209134
:100430000605309107054091080550910905609126
:100440000A0570910B0580910C0590910D050E9495
:10045000440468EC70E080E090E00E940F1BCE0145
:100460000E94B20164EF71E080E090E0DF91CF91F3
:100470001F910F91FF90EF90DF90CF900C940F1B86
:10048000DF91CF911F910F91FF90EF90DF90CF9070
:1004900008950E94130581110FC0409104065091E8
:1004A000050651954195510960911C0170911D01FE
:1004B0008FE596E00C9439160895EF92FF920F9312
:1004C0001F9381E9E82EF12C0091FA041091FB04AE
:1004D0002091FC043091FD044091FE045091FF04F2
:1004E00060910005709101058091020590910305CE
:1004F0000E9444041F910F91FF90EF900895EF9296
:10050000FF920F931F93E12CF12C0091FA041091AC
:10051000FB042091FC043091FD044091FE045091B5
:10052000FF04609100057091010580910205909192
:1005300003050E9444041F910F91FF90EF900895CE
:10054000EF92FF920F931F93CF93DF93EC0188817B
:10055000811121C00E94090581111AC0CE010E949B
:100560007F0264EF71E080E090E00E940F1BCE01FB
:100570000E94B2010E9409058823E1F360911C01E9
:1005800070911D0140E050E08FE596E00E94391621
:1005900081E990E039C0CE010E947F0288E2E82E16
:1005A000F12C00910405109105052091060530916C
:1005B0000705409108055091090560910A05709161
:1005C0000B0580910C0590910D050E9444040E943A
:1005D0001305811117C068EE73E080E090E00E947F
:1005E0000F1BCE010E9449020E9413058823E1F3EC
:1005F00060911C0170911D0140E050E08FE596E094
:100600000E94391684EB90E07C0100910405109162
:100610000505209106053091070540910805509188
:10062000090560910A0570910B0580910C05909168
:100630000D050E94440464EF71E080E090E00E94A8
:100640000F1BCE010E945D02198264EF71E080E011
:1006500090E0DF91CF911F910F91FF90EF900C945C
:100660000F1BFC01108211820C94A002EF92FF92EA
:100670000F931F93CF93DF93EC010E947F0264EFEF
:1006800071E080E090E00E940F1B88E2E82EF12CE0
:10069000009104051091050520910605309107058C
:1006A000409108055091090560910A0570910B056C
:1006B00080910C0590910D050E9444040E9409054B
:1006C000882381F060911C0170911D0140E050E091
:1006D0008FE596E0DF91CF911F910F91FF90EF9002
:1006E0000C943916CE010E94B2010E94090588239C
:1006F000E1F3E8CFCF92DF92EF92FF920F931F9337
:10070000CF93DF93EC016B01E12CF12C00910405F8
:1007100010910505209106053091070540910805C7
:100720005091090560910A0570910B0580910C05A7
:1007300090910D050E94440468EE73E080E090E023
:100740000E940F1BCE010E945D0268EE73E080E004
:1007500090E00E940F1B81E0C816D10421F4CE0165
:100760000E9436030FC082E0C816D10421F4CE01E6
:100770000E94310307C084E0C816D10419F0CE01ED
:100780000E94A0021982DF91CF911F910F91FF90DB
:10079000EF90DF90CF900895EF92FF920F931F9309
:1007A000CF937C018B010E940905C82F811106C0DF
:1007B0000E941305811102C0C0E039C060911C0184
:1007C00070911D0140E050E08FE596E00E943916DF
:1007D000CC2391F3F701C181CC2371F3C8010397B6
:1007E000029720F494E6E92EF12C06C0053011059D
:1007F000D1F480E5E82EF12C009104051091050557
:100800002091060530910705409108055091090592
:1008100060910A0570910B0580910C0590910D0572
:100820000E94440404C0B801C7010E947A038C2FBF
:10083000CF911F910F91FF90EF900895CF92DF928B
:10084000EF92FF920F931F93CF93DF93EC016B0115
:100850007A0189016FEF0E94A218D982C88281E0D3
:1008600090E09B838A83FD82EC8282E090E09F830C
:100870008E8319870887DF91CF911F910F91FF9089
:10088000EF90DF90CF900895EF92FF920F931F9318
:10089000CF93DF93CDB7DEB72A970FB6F894DEBFBC
:1008A0000FBECDBF09831A832B833C834D835E83A8
:1008B0006F83788789879A87822F0E94951C2D8164
:1008C0003E8182179307D1F48F810E94951C298560
:1008D0003A858217930791F4B701CE0101960E94E1
:1008E00058192A960FB6F894DEBF0FBECDBFDF9120
:1008F000CF911F910F91FF90EF900895CE01019637
:100900000E94CE186D818B810E94651C69858F8144
:100910000E94651CE1CF63E28AE395E00E94A21881
:100920006FE188E395E00E94A2186AE286E395E011
:100930000E94A218609138057091390520E030E0DE
:1009400040E050E08CE295E00E941E0460913A0580
:1009500070913B0520E030E040E050E082E295E01D
:100960000E941E04609138057091390521E030E045
:1009700040E050E088E195E00E941E0460913A0555
:1009800070913B0521E030E040E050E08EE095E0E2
:100990000E941E04609138057091390520E030E016
:1009A00041E050E084E095E00E941E0460913A0529
:1009B00070913B0520E030E041E050E08AEF94E0A8
:1009C0000E941E04609138057091390521E030E0E5
:1009D00041E050E080EF94E00E941E0460913A05EF
:1009E00070913B0521E030E041E050E086EE94E07C
:1009F0000C941E04809108010E947B1B21E0409111
:100A0000FA055091FB058417950708F020E0822F26
:100A10000895809118010E94951C21E0892B09F00E
:100A200020E0822F089580911A010E94951C21E0F8
:100A3000892B09F020E0822F089580910A010E94FD
:100A40007B1B21E04091220650912306481759074D
:100A500008F020E0822F0895809106010E947B1B00
:100A600021E04091F0055091F1054817590708F031
:100A700020E0822F0895809116010E94951C21E0AC
:100A8000892B09F020E0822F0895809114010E94A3
:100A9000951C21E0892B09F020E0822F0895EF9228
:100AA000FF920F931F938AEAE82EF12C00912C05F8
:100AB00010912D0520912E0530912F054091300584
:100AC0005091310560913205709133058091340564
:100AD000909135050E9444049AE0E92EF12C009192
:100AE0002205109123052091240530912505409180
:100AF0002605509127056091280570912905809160
:100B00002A0590912B050E9444041F910F91FF909C
:100B1000EF900895EF92FF920F931F938AE0E82ED3
:100B2000F12C00912C0510912D0520912E0530916E
:100B30002F0540913005509131056091320570913B
:100B4000330580913405909135050E9444049AEA5A
:100B5000E92EF12C00912205109123052091240506
:100B60003091250540912605509127056091280573
:100B70007091290580912A0590912B050E944404CB
:100B80001F910F91FF90EF900895EF92FF920F93B6
:100B90001F93E12CF12C00910E0510910F0520916F
:100BA0001005309111054091120550911305609187
:100BB00014057091150580911605909117050E94F6
:100BC000440486E9E82EF12C0091180510911905CE
:100BD00020911A0530911B0540911C0550911D056F
:100BE00060911E0570911F0580912005909121054F
:100BF0000E9444041F910F91FF90EF900895EF928F
:100C0000FF920F931F938EE6E82EF12C00910E05B4
:100C100010910F052091100530911105409112059A
:100C2000509113056091140570911505809116057A
:100C3000909117050E9444049DE2E92EF12C009149
:100C400018051091190520911A0530911B05409146
:100C50001C0550911D0560911E0570911F05809126
:100C60002005909121050E9444041F910F91FF904F
:100C7000EF900895CF93DF93C2E1D1E060E08881E7
:100C80000E94651C6AEF70E080E090E00E940F1BFC
:100C900061E08881DF91CF910C94651C0E94FA0479
:100CA000882321F090913E0581E08927089560E036
:100CB000809112010C94651C81E080933E05809127
:100CC0003F05882319F00E94570616C080914205FF
:100CD00090914305039761F460E570E086E495E048
:100CE0000E94930E68EC70E080E090E00E940F1B81
:100CF00086E495E00E94D10E60E971E080E090E02A
:100D00000E940F1B84E495E00E94C301809142057C
:100D10009091430501969093430580934205089571
:100D200080913F05882371F0809110010E94951CED
:100D3000892B41F481E0209140053091410521301B
:100D4000310509F080E0089510923F0566EE70E0ED
:100D500086E495E00E94930E64E670E080E090E007
:100D60000E940F1B62E870E086E495E00C94930EFD
:100D7000CF930E942C05C82F811115C060913C05AE
:100D800070913D0544E75FEF8FE596E00E943916CC
:100D900060911E0170911F0140EA50E08FE596E0DE
:100DA0000E94391604C086E495E00E94D10E8C2F73
:100DB000CF910895CF930E942C05C82F811115C0A3
:100DC00060913C0570913D0546EE50E08FE596E060
:100DD0000E94391660911E0170911F0144E650E097
:100DE0008FE596E00E94391604C086E495E00E94E3
:100DF000D10E8C2FCF910895CF930E943B05C82F21
:100E00000E944505CC23C9F0882331F086E495E0A3
:100E10000E94D10E81E039C060913C0570913D0582
:100E200042E95FEF8FE596E00E94391660911E015E
:100E300070911F0144EC5FEF12C08823F9F06091BC
:100E40003C0570913D0544EC5FEF8FE596E00E9414
:100E5000391660911E0170911F0142E95FEF8FE525
:100E600096E00E94391664EF71E080E090E00E9405
:100E70000F1B86E495E00E94D10E06C060E570E08D
:100E800086E495E00E94850E80E0CF9108958091E0
:100E900010010E94951C892BD1F3809140059091FF
:100EA00041050196909341058093400584E495E0C7
:100EB0000C94A00262E870E086E495E00E94930E34
:100EC0000E941D058823E1F361E086E495E00E941D
:100ED000930F64EF71E080E090E00E940F1B60913F
:100EE00042057091430584E495E00E947A0364EF23
:100EF00071E080E090E00E940F1B66E970E086E4FC
:100F000095E00E94B00E6CE271E080E090E00E94FB
:100F10000F1B86E495E00E94D10E68EC70E080E043
:100F200090E00E940F1B0E94B806811105C06AE084
:100F300070E080E090E0F5CF68EE73E080E090E054
:100F40000E940F1B60E070E086E495E00C94850E33
:100F50006EE670E086E495E00E94930E0E941D0507
:100F60008823E1F386E495E00E94D10E609142056A
:100F70007091430584E495E00E947A0341E06AE5BC
:100F800070E086E495E00E94D70E68EE73E080E0A2
:100F900090E00E940F1B60E070E086E495E00E9404
:100FA000930E0E941D058823E1F386E495E00E94DC
:100FB000D10E68EE73E080E090E00E940F1B0E946B
:100FC000C50568EE73E080E090E00E940F1B86E4A8
:100FD00095E00E94D10E68EE73E080E090E00E9400
:100FE0000F1B64E670E086E495E00E94B00E6CE2B0
:100FF00071E080E090E00E940F1B86E495E00E9483
:10100000D10E68EE73E080E090E00E940F1B6AEF63
:1010100070E086E495E00E94930E68EC70E080E05A
:1010200090E00E940F1B86E495E00E94D10E64EFD1
:1010300071E080E090E00E940F1B66E970E086E4BA
:1010400095E00E94B00E68EC70E080E090E00E94B5
:101050000F1B86E495E00E94D10E60ED77E080E002
:1010600090E00E940F1B62E870E086E495E00E9429
:10107000930E84E495E00C94A00286E495E00E942F
:10108000D10E0E94DA06811107C06AE070E080E0AC
:1010900090E00E940F1BF5CF60E070E086E495E0E1
:1010A0000E94850E0E94DD1A0E94450581110FC025
:1010B0000E943B0581110BC086E495E00E94AC0FB5
:1010C0006AE070E080E090E00E940F1BEDCF86E4C4
:1010D00095E00E94D10E64EF71E080E090E00E9404
:1010E0000F1B0E94FC06811105C064E670E080E0E1
:1010F00090E0F5CF68EE73E080E090E00E940F1B77
:101100000E944F0560E27EE480E090E00C940F1BAB
:1011100086E495E00E94D10E61E0809112010E9468
:10112000651C64EF71E080E090E00E940F1B0E945C
:10113000FF0564EF71E080E090E00E940F1B0E94C9
:101140008A0564EF71E080E090E00E940F1B84E468
:1011500095E00C94A0021092410510924005109267
:1011600043051092420581E080933F0510923E05B1
:1011700086E495E00E94D10E0E9488080E943A06FB
:1011800064EF71E080E090E00C940F1B82E090E04F
:10119000909343058093420510923F0510923E05BF
:1011A00086E495E00E94D10E84E495E00E9431032C
:1011B0000E9488080C94A4068091550581110C9416
:1011C000C6080C94AB0886E495E00E94D10E61E05D
:1011D000809112010E94651C0E94FF0564EF71E07E
:1011E00080E090E00C940F1BCF92DF92EF92FF9281
:1011F0000E94DD1A6B017C0181E696E00E941D18B9
:1012000062E271E081E696E00E94DF1E41E060E06C
:1012100081E696E00E9432176AE271E081E696E08C
:101220000E94DF1E0E94DC080E94DD1ADC01CB0157
:101230008C199D09AE09BF090A97A105B105A0F354
:101240000E94DD1A6B017C010E94900681110E94B0
:10125000A40681E696E00E941D18809108010E9474
:101260007B1B4AE050E0BC0181E696E00E94911FA2
:101270000E944E0681110E945C06609142057091A9
:10128000430584E495E00E94CC03882351F1109239
:101290003E0580914205909143059C012150310902
:1012A0002230310570F461E0809112010E94651CCA
:1012B0008091420590914305019799F40E94470758
:1012C00010C08330910519F40E945A070AC0843077
:1012D000910519F40E94A80704C0059711F40E9413
:1012E0003D0886E495E00E94AC0F0E948216892B8F
:1012F00009F49ACF64E670E080E090E00E940F1B52
:101300000E948216892B09F48FCF6EE772E081E686
:1013100096E00E94DF1E86E495E0FF90EF90DF905C
:10132000CF900C94D10ECF92DF92EF92FF920F9359
:101330001F93CF93DF93CDB7DEB7E2970FB6F89444
:10134000DEBF0FBECDBF66E276E0CE014F960E94B3
:101350005C20E6E2F6E0868197819EA38DA38085DE
:10136000918598A78FA360E376E0CE0145960E9411
:101370005C20E0E3F6E0868197819C8F8B8F8085EF
:1013800091859E8F8D8F6AE376E0CE010B960E9449
:101390005C20EAE3F6E0868197819A8B898B8085D1
:1013A00091859C8B8B8B9E01215E3F4FAE014B5EE6
:1013B0005F4FBE01655F7F4FCE0189960E94DC0FB3
:1013C00064E476E0CE0101960E945C20E4E4F6E05D
:1013D0008681978198878F83808591859A87898771
:1013E000C9A4DAA4EBA4FCA40DA51EA52FA538A9B9
:1013F00049A95AA9BE016F5F7F4F86E495E00E941C
:10140000490ECE0101960E94C21FCE010B960E948A
:10141000C21FCE0145960E94C21FCE014F960E9468
:10142000C21F84E495E00E94AD01E2960FB6F894E5
:10143000DEBF0FBECDBFDF91CF911F910F91FF9007
:10144000EF90DF90CF90089540E060E081E696E075
:101450000E94A01726E040E855E260E070E085ECCD
:1014600097E00E94951D81E696E00E941D1869E3B1
:1014700071E081E696E00E94DF1E41E060E081E6D7
:1014800096E00E94321762E471E081E696E00E94E5
:10149000DF1E61E080E00E94291C61E081E00E9483
:1014A000291C61E082E00E94291C61E083E00E9427
:1014B000291C61E084E00E94291C61E085E00E9413
:1014C000291C61E086E00E94291C61E087E00E94FF
:1014D000291C0E94E30860ED77E080E090E00C9426
:1014E0000F1B81E696E00E941D1881E696E00E949F
:1014F0002F1763E571E081E696E00E94DF1E41E070
:1015000060E081E696E00E94321764E671E081E6D1
:1015100096E00E94DF1E64E670E080E090E00E94AA
:101520000F1B0E948216892B61F064E670E080E058
:1015300090E00E940F1B0E948216892BB1F00C9440
:10154000CC0A0E947716892B81F064E670E080E077
:1015500090E00E940F1B0E947716892B31F081E6E4
:1015600096E00E941D180C94CC0B08950F931F93C6
:10157000CF93DF93EC018B010E945C20F801868100
:1015800097819F838E838085918599878887DF9156
:10159000CF911F910F9108959F92AF92BF92CF92DA
:1015A000DF92EF92FF920F931F93CF93DF9381E629
:1015B00096E00E941D1881E696E00E942F1764E7CE
:1015C00071E081E696E00E94DF1E41E060E081E686
:1015D00096E00E9432176DE771E081E696E00E9486
:1015E000DF1E64EF71E080E090E00E940F1B2AE0B4
:1015F000922E33E0A32EB12C86E090E00E946F166D
:1016000020914E0630914F06AC01429FC001439F8E
:10161000900D529F900D11247C01EF2CFF24E69435
:10162000E69481E696E00E941D1881E696E00E940D
:101630002F179E9CE0019F9CD00D1124CA57DA4FB2
:10164000BE0181E696E00E94D11E66ED72E081E661
:1016500096E00E94DF1E6E817F814AE050E081E6C5
:1016600096E00E94BC1F41E060E081E696E00E94A7
:10167000321787E090E00E946F16B5010E94F521B5
:101680006B018B016CE176E0CE010E949520811107
:101690007DC064EF75E0CE010E949520811176C077
:1016A00066E276E0CE010E94952081116FC06AEE5D
:1016B00075E0CE010E949520811168C069E871E053
:1016C00081E696E00E94DF1E4AE050E0B80181E624
:1016D00096E00E94911F61E971E081E696E00E9428
:1016E000DF1E64E670E080E090E00E940F1B0E9425
:1016F0007716892BE1F064E670E080E090E00E94CC
:101700000F1B0E947716892B91F09E9CF0019F9CE5
:10171000F00D1124EA57FA4F17830683CE010E9479
:10172000420E6AEF70E080E090E00E940F1B0E9482
:101730008216892B09F460CF64E670E080E090E0C7
:101740000E940F1B0E948216892B09F455CF81E657
:1017500096E00E941D1881E696E00E942F1763E92B
:1017600071E081E696E00E94DF1E64EF71E080E0A8
:1017700090E0DF91CF911F910F91FF90EF90DF905C
:10178000CF90BF90AF909F900C940F1B8601000FDD
:10179000111F0C0D1D1D92CFCF92DF92EF92FF9281
:1017A0000F931F93CF93DF9300D000D000D0CDB71D
:1017B000DEB781E696E00E941D1864E771E081E6DD
:1017C00096E00E94DF1E41E060E081E696E00E9424
:1017D000321760EA71E081E696E00E94DF1E64EF56
:1017E00071E080E090E00E940F1B88E1D82E96E027
:1017F000C92E86E090E00E946F168C0181E696E08B
:101800000E941D1881E696E00E942F17D09EC0010D
:10181000D19E900D112466E070E00E94E121E72E38
:10182000E694E694F12CCE9C8001CF9C100D1124FF
:101830000A5A1A4FB80181E696E00E94D11E41E093
:1018400060E081E696E00E94321769EA71E081E685
:1018500096E00E94DF1E64E670E080E090E00E9467
:101860000F1B0E947716892BB9F164E670E080E0C7
:1018700090E00E940F1B0E947716892B69F1B80136
:10188000CE0101960E945C2060E875E0CE010196D1
:101890000E949520882319F00E94F40818C06AE776
:1018A00075E0CE0101960E949520882319F00E94D0
:1018B000E9110DC064E775E0CE0101960E94952004
:1018C000882319F00E94BB1302C00E944310CE016E
:1018D00001960E94C21F24C00E948216892B09F41F
:1018E00088CF64E670E080E090E00E940F1B0E94C9
:1018F0008216892B09F47DCF81E696E00E941D189F
:1019000081E696E00E942F1769EB71E081E696E090
:101910000E94DF1E64EF71E080E090E00E940F1BE8
:1019200026960FB6F894DEBF0FBECDBFDF91CF91E4
:101930001F910F91FF90EF90DF90CF900895CF937C
:10194000DF9300D000D000D0CDB7DEB764EC71E0FB
:10195000CE0101960E943020BE016F5F7F4F84E46C
:1019600096E00E941B0ECE0101960E94C21F6FECF2
:1019700071E0CE0101960E943020BE016F5F7F4F63
:101980008AE396E00E941B0ECE0101960E94C21FC0
:1019900066ED71E0CE0101960E943020BE016F5FBE
:1019A0007F4F80E396E00E941B0ECE0101960E94BD
:1019B000C21F6DED71E0CE0101960E943020BE0184
:1019C0006F5F7F4F86E296E00E941B0ECE0101966C
:1019D0000E94C21F68EE71E0CE0101960E94302085
:1019E000BE016F5F7F4F8CE196E00E941B0ECE011F
:1019F00001960E94C21F64EF71E0CE0101960E9421
:101A00003020BE016F5F7F4F82E196E00E941B0E87
:101A1000CE0101960E94C21F6FEF71E0CE010196C8
:101A20000E943020BE016F5F7F4F88E096E00E94E9
:101A30001B0ECE0101960E94C21F6BE072E0CE0128
:101A400001960E943020BE016F5F7F4F8EEF95E0C0
:101A50000E941B0ECE0101960E94C21F67E172E038
:101A6000CE0101960E943020BE016F5F7F4F84EF50
:101A700095E00E941B0ECE0101960E94C21F62E2F9
:101A800072E0CE0101960E943020BE016F5F7F4F51
:101A90008AEE95E00E941B0ECE0101960E94C21FA5
:101AA00064E476E086E895E00E94B60A6AE376E0B0
:101AB00080E995E00E94B60A60E376E08AE995E065
:101AC0000E94B60A66E276E084EA95E00E94B60AD1
:101AD0006CE176E08EEA95E00E94B60A62E176E07B
:101AE00088EB95E00E94B60A68E076E082EC95E02B
:101AF0000E94B60A6EEF75E08CEC95E00E94B60A83
:101B000064EF75E086ED95E00E94B60A6AEE75E036
:101B100080EE95E00E94B60A6DE272E080E895E002
:101B20000E94302065E372E08AE795E00E94302051
:101B300065E472E084E795E00E94302065E572E09C
:101B40008EE695E00E94302060E875E086E595E03D
:101B50000E945C206AE775E08CE595E00E945C20BD
:101B600064E775E082E695E00E945C206EE675E031
:101B700088E695E00E945C2026960FB6F894DEBFBA
:101B80000FBECDBFDF91CF910895CF93DF9388E64D
:101B900095E00E94C21F82E695E00E94C21F8CE57C
:101BA00095E00E94C21F86E595E00E94C21F8EE666
:101BB00095E00E94C21F84E795E00E94C21F8AE759
:101BC00095E00E94C21F80E895E00E94C21FCAEE05
:101BD000D5E02A97CE010E94C21F85E0C638D807FB
:101BE000C1F78AEE95E00E94C21F84EF95E00E9443
:101BF000C21F8EEF95E00E94C21F88E096E00E940F
:101C0000C21F82E196E00E94C21F8CE196E00E9412
:101C1000C21F86E296E00E94C21F80E396E00E9407
:101C2000C21F8AE396E00E94C21F84E496E0DF911F
:101C3000CF910C94C21F0F931F93CF93DF93EC01AE
:101C40008B0168ED74E00E94302020914E063091A7
:101C50004F062F5F3F4F30934F0620934E06220FC3
:101C6000331F39872887B801CE010E944520888517
:101C700099850E947B249F838E83DF91CF911F9152
:101C80000F910895FC0166817781808591850C9480
:101C90008124CF92DF92EF92FF920F931F93CF9305
:101CA000DF93CDB7DEB72A970FB6F894DEBF0FBE2D
:101CB000CDBFC982DA82EB82FC820D831E832F8323
:101CC000388749875A872AE0FE013196DC0114964D
:101CD00001900D922A95E1F7FB0126813781FC01E5
:101CE000338322833183208321E026872A960FB60F
:101CF000F894DEBF0FBECDBFDF91CF911F910F9142
:101D0000FF90EF90DF90CF900895FC0181E08687EF
:101D10006115710519F49281838102C0962F872F76
:101D2000908381830895CF93DF93EB01FC011686A6
:101D3000209711F4C281D38160913C0570913D05DB
:101D4000AE018FE596E00E94391660911E017091F8
:101D50001F01AE018FE596E0DF91CF910C9439160B
:101D6000CF93DF93FC0116866115710511F4628132
:101D70007381CC27DD27C61BD70B60913C05709182
:101D80003D05AE018FE596E00E94391660911E0177
:101D900070911F01AE018FE596E0DF91CF910C9419
:101DA0003916FC0116868FE596E00C942516FF92F5
:101DB0000F931F93CF93DF93EC018B01F42E1E86BC
:101DC00060913C0570913D054AE65FEF8FE596E036
:101DD0000E943916FF2081F060911E0170911F0151
:101DE0004AE65FEF8FE596E00E94391668EC70E0F6
:101DF00080E090E00E940F1B60911E0170911F0116
:101E000046E950E08FE596E00E94391681E696E0BB
:101E10000E941D1860911806709119064AE050E062
:101E200081E696E00E94BC1F8091180690911906E9
:101E3000089FB001099F700D189F700D112480E05C
:101E400090E00E94E62020E030E040E05FE30E9466
:101E500074210E94B7200E940F1BCE01DF91CF9109
:101E60001F910F91FF900C94D10EFF920F931F932F
:101E7000CF93DF93EC018B01F42E1E8660911E013F
:101E800070911F014AE65FEF8FE596E00E943916D8
:101E9000FF2081F060913C0570913D054AE65FEFBF
:101EA0008FE596E00E94391668EC70E080E090E0E3
:101EB0000E940F1B60913C0570913D0546E950E082
:101EC0008FE596E00E94391681E696E00E941D1883
:101ED00060911806709119064AE050E081E696E09C
:101EE0000E94BC1F8091180690911906089FB001AE
:101EF000099F700D189F700D112480E090E00E94E2
:101F0000E62020E030E040E05FE30E9474210E9480
:101F1000B7200E940F1BCE01DF91CF911F910F912F
:101F2000FF900C94D10ECF93DF93EC01662329F040
:101F300068EC70E00E94B00E04C068EC70E00E9493
:101F4000930E6EE170E080E090E00E940F1BCE01E6
:101F5000DF91CF910C94D10E0F931F93CF93DF930A
:101F6000FC012685222319F1EC0104960E941F1022
:101F70008C0128813981A901481B590B60913C05CE
:101F800070913D058FE596E00E94391628813981D0
:101F9000A801420F531F60911E0170911F018FE530
:101FA00096E0DF91CF911F910F910C943916DF913C
:101FB000CF911F910F910895FC01D90116968D9133
:101FC0009C91179791838083DB0116968D919C914C
:101FD000179795838483DA0116968D919C911797B4
:101FE0009783868308950F931F93CF93DF93EC011C
:101FF0008885898780910C010E947B1B8C018091D0
:102000000E010E947B1B288139812017310728F09F
:102010008217930778F0188607C02817390710F43D
:1020200081E001C0898588878885DF91CF911F91E4
:102030000F9108950217130780F78FEFF4CFCF9316
:10204000DF93EC010E94F30F282F880F330B8C8154
:102050009D81289FA001299F500D389F500D11246C
:102060008985281B310987FD33956E817F81269FE5
:10207000C001279F900D369F900D1124840F951F4E
:10208000DF91CF91089581E696E00E941D1866E6E3
:1020900072E081E696E00E94DF1E41E060E081E6AA
:1020A00096E00E94321762E772E081E696E00E94B5
:1020B000DF1E68ED74E085EC97E00E94EC1E68ED91
:1020C00074E085EC97E00E94EC1E63E872E085EC1A
:1020D00097E00E94DF1E0E940905682F70E04AE029
:1020E00050E085EC97E00E94981F6EE872E085EC66
:1020F00097E00E94DF1E0E941305682F70E04AE0FF
:1021000050E085EC97E00E94981F6CE972E085EC46
:1021100097E00E94DF1E0E944505682F70E04AE0AC
:1021200050E085EC97E00E94981F69EA72E085EC28
:1021300097E00E94DF1E0E943B05682F70E04AE096
:1021400050E085EC97E00E94981F67EB72E085EC09
:1021500097E00E94DF1E80910E010E947B1B4AE0E7
:1021600050E0BC0185EC97E00E94981F61EC72E0A2
:1021700085EC97E00E94DF1E80910C010E947B1B82
:102180004AE050E0BC0185EC97E00E94981F6CEC9F
:1021900072E085EC97E00E94DF1E80910A010E94A8
:1021A0007B1B4AE050E0BC0185EC97E00E94981F41
:1021B00068ED72E085EC97E00E94DF1E80910801D7
:1021C0000E947B1B4AE050E0BC0185EC97E00E9436
:1021D000981F68EE73E080E090E00E940F1B0E9461
:1021E0008216892B09F465CF64E670E080E090E008
:1021F0000E940F1B0E948216892B09F45ACF81E698
:1022000096E00E941D1862EE72E081E696E00E9460
:10221000DF1E41E060E081E696E00E9432176BEE3F
:1022200072E081E696E00E94DF1E68EE73E080E0D7
:1022300090E00C940F1B81E696E00E941D1867EF5A
:1022400072E081E696E00E94DF1E80910E010E94FE
:102250007B1B4AE050E0BC0181E696E00E94911FA2
:1022600041E060E081E696E00E94321760E073E0B2
:1022700081E696E00E94DF1E80910C010E947B1B8C
:102280004AE050E0BC0181E696E00E94911F64E6BE
:1022900070E080E090E00C940F1B81E696E00E94D5
:1022A0001D186AE073E081E696E00E94DF1E8091CF
:1022B0000A010E947B1B4AE050E0BC0181E696E0E7
:1022C0000E94911F64E670E080E090E00C940F1B88
:1022D00081E696E00E941D1865E173E081E696E0D4
:1022E0000E94DF1E809106010E947B1B4AE050E0A5
:1022F000BC0181E696E00E94911F64E670E080E0F8
:1023000090E00C940F1B81E696E00E941D186FE18F
:1023100073E081E696E00E94DF1E809108010E9432
:102320007B1B4AE050E0BC0181E696E00E94911FD1
:1023300064E670E080E090E00C940F1B81E696E08C
:102340000E941D186CE972E081E696E00E94DF1E93
:102350000E943B05682F70E04AE050E081E696E07D
:102360000E94911F41E060E081E696E00E943217F2
:1023700069EA72E081E696E00E94DF1E0E94450550
:10238000682F70E04AE050E081E696E00E94911FDD
:1023900064E670E080E090E00C940F1B81E696E02C
:1023A0000E941D1868E273E081E696E00E94DF1E3D
:1023B000809110010E94951C4AE050E0BC0181E62A
:1023C00096E00E94911F64E670E080E090E00C943B
:1023D0000F1B81E696E00E941D1869E372E081E61A
:1023E00096E00E94DF1E68EE73E080E090E00E94BD
:1023F0000F1B81E696E00E941D1861E373E081E601
:1024000096E00E94DF1E41E060E081E696E00E94D7
:10241000321769E373E081E696E00E94DF1E68EE02
:1024200073E080E090E00E940F1B0E947716892BDA
:1024300019F40E941B11F9CF81E696E00E941D1845
:102440006FE373E081E696E00E94DF1E68EE73E0C2
:1024500080E090E00E940F1B0E947716892B19F4F0
:102460000E944D11F9CF81E696E00E941D1869E4A3
:1024700073E081E696E00E94DF1E68EE73E080E084
:1024800090E00E940F1B0E947716892B19F40E947E
:102490006811F9CF81E696E00E941D1862E573E0AD
:1024A00081E696E00E94DF1E41E060E081E696E072
:1024B0000E9432176BE573E081E696E00E94DF1E12
:1024C00068EE73E080E090E00E940F1B0E94771698
:1024D000892B19F40E948311F9CF81E696E00E94BE
:1024E0001D1864E673E081E696E00E94DF1E68EE48
:1024F00073E080E090E00E940F1B0E947716892B0A
:1025000019F40E949E11F9CF81E696E00E941D18F1
:1025100061E773E081E696E00E94DF1E68EE73E0FB
:1025200080E090E00E940F1B0E947716892B19F41F
:102530000E94CE11F9CF81E696E00E941D186FE748
:1025400073E081E696E00E94DF1E41E060E081E6F4
:1025500096E00E94321760E572E081E696E00E9404
:10256000DF1E68EE73E080E090E00C940F1B81E6C4
:1025700096E00E941D186EE873E081E696E00E94E6
:10258000DF1E0E948A0560ED77E080E090E00E9407
:102590000F1B0E947716892B91F481E696E00E942A
:1025A0001D1864E973E081E696E00E94DF1E0E9438
:1025B0004F0560ED77E080E090E00C940F1B0895EC
:1025C000CF930E94FA04C82F81E696E00E941D185E
:1025D00069E973E081E696E00E94DF1E6C2F70E0EF
:1025E0004AE050E081E696E00E94911FCC2359F02A
:1025F00080915006811107C081E08093500684E4E9
:1026000095E00E94C30160E070E084E495E00E94E0
:10261000CC03811110925006CF91089584E495E087
:102620000E94A00260ED77E080E090E00E940F1B26
:102630000E947716892B51F484E495E00E943603BA
:1026400060ED77E080E090E00C940F1B089581E648
:1026500096E00E941D186EE873E081E696E00E9405
:10266000DF1E0E94FF0560ED77E080E090E00E94B1
:102670000F1B0E947716892B91F481E696E00E9449
:102680001D1868EA73E081E696E00E94DF1E0E9452
:10269000C50560ED77E080E090E00C940F1B089595
:1026A00041E06AE570E086E495E00E94350F68EE4F
:1026B00073E080E090E00E940F1B0E947716892B48
:1026C00069F441E06AE570E086E495E00E94D70E87
:1026D00068EE73E080E090E00C940F1B08950E9478
:1026E000B806811107C06AE070E080E090E00E94C7
:1026F0000F1BF5CF68E873E180E090E00C940F1BAE
:1027000068EC70E086E495E00E94930E68EE73E05A
:1027100080E090E00E940F1B0E947716892B51F5F4
:1027200061E086E495E00E94930F68EE73E080E03C
:1027300090E00E940F1B0E947716892BD9F468EC59
:1027400070E086E495E00E94B00E68EE73E080E0F1
:1027500090E00E940F1B0E947716892B59F460E0CD
:1027600086E495E00E94930F68EE73E080E090E0CD
:102770000C940F1B0895CF92DF92EF92FF92CF93AC
:10278000DF9300D0CDB7DEB70E94DD1A6B017C016C
:1027900081E696E00E941D1869E472E081E696E009
:1027A0000E94DF1E41E060E081E696E00E94321761
:1027B0006FEA73E081E696E00E94DF1E68EE73E048
:1027C00080E090E00E940F1B81E696E00E941D18B9
:1027D00060EC73E081E696E00E94DF1E68EE73E035
:1027E00080E090E00E940F1B0E947716892B51F524
:1027F00068E770E086E495E00E94B00E68EE73E052
:1028000080E090E00E940F1B60E086E495E00E946B
:10281000930F60E570E086E495E00E94850E0E94CB
:102820003B05811187C10E944505811183C186E462
:1028300095E00E94AC0F6AE070E080E090E00E94BA
:102840000F1BEDCF81E696E00E941D1860ED73E04E
:1028500081E696E00E94DF1E68EE73E080E090E083
:102860000E940F1B84E495E00E94A0021092500683
:102870000E947716892B99F40E94DD1ADC01CB01A6
:102880008C199D09AE09BF090A97A105B105A0F3EE
:102890000E94DD1A6B017C010E94E012E9CF81E603
:1028A00096E00E941D1861EE73E081E696E00E94BA
:1028B000DF1E41E060E081E696E00E9432176DEE97
:1028C00073E081E696E00E94DF1E68EE73E080E030
:1028D00090E00E940F1BCE0101960E94AD018981FC
:1028E0009A8190934505809344050E947716892B21
:1028F00019F40E940E13F9CF81E696E00E941D188C
:102900006BEF73E081E696E00E94DF1E68EE73E0F5
:1029100080E090E00E940F1B84E495E00E94310368
:10292000109250060E947716892B99F40E94DD1AA6
:10293000DC01CB018C199D09AE09BF090A97A105DD
:10294000B105A0F30E94DD1A6B017C010E94E01228
:10295000E9CF81E696E00E941D1869E074E081E607
:1029600096E00E94DF1E68EE73E080E090E00E9437
:102970000F1B68EC70E086E495E00E94B00E0E94A8
:102980007716892B39F46AE070E080E090E00E94CD
:102990000F1BF5CF86E495E00E94D10E81E696E00C
:1029A0000E941D1861E174E081E696E00E94DF1E3E
:1029B00068EE73E080E090E00E940F1B0E947716A3
:1029C000892B19F40E946F13F9CF81E696E00E94DB
:1029D0001D1861E274E081E696E00E94DF1E41E08E
:1029E00060E081E696E00E94321760E374E081E6E1
:1029F00096E00E94DF1E68EB7BE080E090E00E94A2
:102A00000F1B81E696E00E941D1869E374E081E6E1
:102A100096E00E94DF1E41E060E081E696E00E94C1
:102A2000321769E474E081E696E00E94DF1E68EEEA
:102A300073E080E090E00E940F1B0E947716892BC4
:102A400019F40E945013F9CF81E696E00E941D18F8
:102A500067E574E081E696E00E94DF1E41E060E0F9
:102A600081E696E00E94321769E474E081E696E020
:102A70000E94DF1E68EE73E080E090E00E940F1B72
:102A80000E947716892B19F40E948013F9CF81E6F2
:102A900096E00E941D1861E674E081E696E00E94CF
:102AA000DF1E68EE73E080E090E00E940F1B0E9442
:102AB0007716892B19F40E942713F9CF81E696E047
:102AC0000E941D1860E774E081E696E00E94DF1E18
:102AD00068EE73E080E090E00E940F1B0E94771682
:102AE000892B19F40E94B712F9CF81E696E00E9473
:102AF0001D186FE774E081E696E00E94DF1E41E05A
:102B000060E081E696E00E9432176EE874E081E6AC
:102B100096E00E94DF1E68EE73E080E090E00E9485
:102B20000F1B0F900F90DF91CF91FF90EF90DF90F0
:102B3000CF90089586E495E00E94D10E60913C0507
:102B400070913D054CE95FEF8FE596E00E943916E4
:102B500060911E0170911F0144EC5FEF8FE596E0DC
:102B60000E94391660E971E080E090E00E940F1B3E
:102B700060911E0170911F0144E650E08FE596E0E0
:102B80000E94391660913C0570913D054CE350E080
:102B90008FE596E00E9439160E944505811107C015
:102BA0006AE070E080E090E00E940F1BF5CF86E4C1
:102BB00095E00E94D10E60ED77E080E090E00E9409
:102BC0000F1B0E944F0560EA7FE080E090E00ACE94
:102BD000CF92DF92EF92FF920F931F93CF93DF93E9
:102BE000C6EAD4E08EE9E82E84E0F82E06E914E087
:102BF000C880229661E08C2D0E94291CF701D080AC
:102C0000F2E0EF0EF11C61E08D2D0E94291C61E0C5
:102C10008C2D0E94651C61E070E08D2D0E94931B3D
:102C2000F80180810E5F1F4F60E070E00E94931BEF
:102C3000F4E0CE3ADF07E1F6DF91CF911F910F91DB
:102C4000FF90EF90DF90CF90089560E070E08DE10D
:102C50000E94931B60E070E08EE10E94931B60E095
:102C600070E084E20E94931B60E070E085E20C94C7
:102C7000931B0F931F93CF93DF938A01EB01CC0F2C
:102C8000DD1F4F3F510509F03CF441308FEF5807ED
:102C900084F057FF03C00FC00FEF10E0FE01EA55AC
:102CA000FB4F61E080810E94651CC256DB4FB8017A
:102CB0000FC001E01FEFFE01EA55FB4F60E080818D
:102CC0000E94651C66277727601B710BC256DB4F7D
:102CD0008881DF91CF911F910F910C94931B880FE6
:102CE000991FFC01E255FB4F80810C947B1B82E312
:102CF0000E94951C21E030E0892B11F020E030E0AB
:102D0000C901089581E30E94951C21E030E0892BE0
:102D100011F020E030E0C901089520915106309172
:102D20005206409153065091540660915506709199
:102D300056068091570690915806A1E00E943422D1
:102D400020935106309352064093530650935406F5
:102D500060935506709356068093570690935806D5
:102D60000E94402251F4109264061092630682EC95
:102D700094E090936206809361068FE596E00E944E
:102D8000E81563E28DE596E00E94A2186FE18BE5FD
:102D900096E00E94A21862E289E596E00C94A218DF
:102DA00089B3881F8827881F0895C3988BBB8FEF2E
:102DB0008ABBC49895E09A95F1F70000C49A95E013
:102DC0009A95F1F70000C49895E09A95F1F7000004
:102DD0001ABA8BBBC39AC298C49A0895C2980C942D
:102DE000D516CF93BA9ABB9ABC9A1ABA9FEF9BBBDF
:102DF000C39AC298C49AC82FC0638C2F0E94EE1643
:102E00008FE496E40197F1F700C000008C2F0E9438
:102E1000EE168FE193E00197F1F700C000008C2FD0
:102E20000E94EE1687EC90E00197F1F700C00000D9
:102E30008C2F0E94EE1687EC90E00197F1F700C00E
:102E4000000081E00E94EE168FE39FE10197F1F709
:102E500000C00000CF910895C29A0C94D516FC01D1
:102E60001782089541706F7020E4429F600D112415
:102E7000FC0167830895CF92DF92EF92FF920F9348
:102E80001F93CF93DF93FC012481222351F0DF9124
:102E9000CF911F910F91FF90EF90DF90CF900C9406
:102EA000D016EC010E94E91AFE01E65FFE4F008198
:102EB0001181228133816B017C01C01AD10AE20A9F
:102EC000F30AC25FDE4F4881598160E070E081E023
:102ED000C416D506E606F70608F080E0DF91CF912C
:102EE0001F910F91FF90EF90DF90CF9008950F9377
:102EF0001F93CF93DF93EC01062F142FCE010E9476
:102F00003B178111FBCF8C81811109C00E94E91A06
:102F1000FE01E65FFE4F6083718382839383802F7F
:102F20000E94EE168C81811106C0C25FDE4F412FD8
:102F300050E059834883DF91CF911F910F910895FD
:102F4000CF93DF93EC016D834C8388E00E94F116F0
:102F500042E36CE0CE010E94771742E360E8CE01C5
:102F60000E9477171F8219861886FE013A96C65767
:102F7000DF4F80E28193DF01A158BF4F8C93EC17A4
:102F8000FD07C1F7DF91CF9108951F93CF93DF9392
:102F9000EC01162FCE010E943B178111FBCF8C81D3
:102FA000811109C00E94E91AFE01E65FFE4F6083AD
:102FB000718382839383812F0E942C178C818111CE
:102FC00006C0C25FDE4F82E390E099838883DF9181
:102FD000CF911F9108951F93CF93DF93EC01162F8C
:102FE0008F81FE01E80FF11D62879D8191111EC046
:102FF000E657FF4F90816917C9F09985981741F0FE
:10300000682F606842E3CE010E9477178F8189871D
:10301000612FCE010E94C5178F81FE01E80FF11DBF
:10302000E657FF4F108389858F5F89878F818F5F78
:103030008F83DF91CF911F9108951F93CF93DF93DB
:10304000FC012581211113C0EC01178210E160E21F
:10305000CE010E94EB171150D1F780E48F8310E16D
:1030600060E2CE010E94EB171150D1F714C0FC01B1
:103070003A969C01265E3F4F40E24193E217F307E8
:10308000E1F7FC01E65BFF4F865A9F4F20E2219358
:10309000E817F907E1F7DF91CF911F9108951F938A
:1030A000CF93DF936D3021F421E0FC01268331C002
:1030B000EC018F816A30B9F41E82807C10E1180F18
:1030C0002F81211728F460E2CE010E94EB17F8CF80
:1030D000822F90E0805C9F4F2F73821B91098F7726
:1030E00099278F8316C09E81992319F0807C8F8346
:1030F0001E828F81282F2F73203140F090E0805C5A
:103100009F4F821B91098F7799278F83CE010E9451
:10311000EB1781E090E0DF91CF911F910895F89433
:1031200014BC8FEF83BD15BC85B5836085BD85B5A7
:10313000886485BD87B7806887BF87B7806487BF8D
:1031400078940895DC016C9311961C92119720914C
:10315000BA07283010F511962C93119799E0929F99
:10316000F0011124EE58F84F108211821196EC9163
:1031700011979E9FF0011124EE58F84F138212828E
:1031800016821196EC919E9FF0011124EE58F84F93
:10319000108617822F5F2093BA070895DC011196DD
:1031A000EC91119799E09E9FF0011124EE58F84F91
:1031B00080818823C1F031810280F381E02D20815C
:1031C000422F50E0232F30E02095309524233523E3
:1031D00020831196EC919E9FF0011124EE58F84F38
:1031E0001582148210820895EF92FF920F931F931D
:1031F000CF93DF937C01DC011196EC91B9E0EB9F5A
:10320000F0011124EE58F84F8081882319F0C7018E
:103210000E94CE18F70180818F3F09F43FC0082F2C
:1032200010E0E801C057DD4FFE019491992309F4A5
:1032300035C061E00E94291CF701A18129E02A9F85
:10324000D0011124AE58B84F31E03C93F801E55A53
:10325000FD4FE4911196EC93D70111968C9190E07B
:10326000FE01C491EC2FF0E0EE0FFF1FEB52FD4F7B
:1032700045915491289FF001299FF00D1124EE589B
:10328000F84F53834283158214828091BB078111CA
:1032900007C03093BB070E948F1802C080E001C0B6
:1032A00081E0DF91CF911F910F91FF90EF900895F2
:1032B0000F931F93CF93DF9300D0CDB7DEB78C0170
:1032C000DC011196EC91B9E0EB9FF0011124EE586E
:1032D000F84F8081811107C0C80169837A830E94F9
:1032E000F4187A816981F801218130E0CB01653BD6
:1032F000710510F084EB90E049E0429FF001439F9C
:10330000F00D1124EE58F84F958384830480F581E5
:10331000E02DEE0FFF1FE454FF4F8591949141E0A3
:1033200050E08F3F910514F440E050E069E0629F67
:10333000F001639FF00D1124EE58F84F508747833A
:103340006FEF70E00E94F52186830F900F90DF9160
:10335000CF911F910F9108951F920F920FB60F9268
:1033600011240BB60F922F934F935F938F939F93DC
:10337000EF93FF9380912001823020F4809120010F
:103380008F5F01C080E080932001209120012111F6
:103390005CC0E091710789E08E9FF0011124EE5826
:1033A000F84F90819923E1F0E09171078E9FF00131
:1033B0001124EE58F84F9181E09171078E9FF00132
:1033C0001124EE58F84F0280F381E02D8081482FC0
:1033D00050E0892F90E080959095842395238083F9
:1033E00080917107873018F4209171072F5F209327
:1033F0007107E091710789E08E9FF0011124EE586A
:10340000F84F90819923A9F0E09171078E9FF00108
:103410001124EE58F84F9181E09171078E9FF001D1
:103420001124EE58F84F0280F381E02D8081892B22
:103430008083E091710789E0E89FF0011124EE5844
:10344000F84F868183BD80E884BDFF91EF919F9105
:103450008F915F914F912F910F900BBE0F900FBEE8
:103460000F901F9018951F920F920FB60F92112474
:103470000BB60F922F933F938F939F93EF93FF93EE
:10348000E091710789E08E9FF0011124EE58F84F0A
:1034900090819923D9F190912001913059F4E091D4
:1034A00071078E9FF0011124EE58F84F2781308567
:1034B000232B81F080912001823041F5E09171074A
:1034C00089E08E9FF0011124EE58F84F2781308556
:1034D000232BE1F0E09171078E9FF0011124EE584B
:1034E000F84F9181E09171078E9FF0011124EE5801
:1034F000F84F0280F381E02D8081282F30E0892F62
:1035000090E080959095822393238083FF91EF91A3
:103510009F918F913F912F910F900BBE0F900FBEF7
:103520000F901F9018951F920F920FB60F921124B3
:103530002F933F938F939F93AF93BF938091BD073A
:103540009091BE07A091BF07B091C0073091BC0712
:1035500023E0230F2D3720F40196A11DB11D05C0D6
:1035600026E8230F0296A11DB11D2093BC0780936E
:10357000BD079093BE07A093BF07B093C00780918B
:10358000C1079091C207A091C307B091C4070196EB
:10359000A11DB11D8093C1079093C207A093C307DB
:1035A000B093C407BF91AF919F918F913F912F919D
:1035B0000F900FBE0F901F9018952FB7F894609141
:1035C000BD077091BE078091BF079091C0072FBFC4
:1035D00008953FB7F8948091C1079091C207A091D8
:1035E000C307B091C40722B706B600FE05C02F3F3F
:1035F00019F00196A11DB11D3FBFBA2FA92F982F19
:103600008827820F911DA11DB11DBC01CD0142E093
:10361000660F771F881F991F4A95D1F708958F92DB
:103620009F92AF92BF92CF92DF92EF92FF926B0187
:103630007C010E94E91A4B015C01C114D104E10430
:10364000F10401F10E94B6200E94E91ADC01CB01CD
:1036500088199909AA09BB09883E9340A105B105BB
:1036600060F321E0C21AD108E108F10888EE880E63
:1036700083E0981EA11CB11CC114D104E104F10423
:1036800019F7DBCFFF90EF90DF90CF90BF90AF9016
:103690009F908F900895789483B7806483BF83B799
:1036A000886083BF83B7846083BF87B7816087BF2B
:1036B0001EBC8EB582608EBD8EB581608EBD8FB50D
:1036C00081608FBD85B5846085BD85B5806485BD0D
:1036D000EAE8F0E08081826080838081816080837D
:1036E000EBE8F0E0808181608083329A319A309AF1
:1036F000379A1AB80895883028F08D3210F08D521C
:1037000001C08FEF87702091210190E4299F9001E3
:103710001124822B87B9369A3699FECF84B125B110
:1037200090E0922B08951F93CF93DF93182FEB0116
:1037300061E00E94291C209711F460E004C0CF3F93
:10374000D10539F461E0812FDF91CF911F910C9465
:10375000651CE12FF0E0EA5DFD4FE4914E2F50E053
:10376000FA013197EC30F10508F040C0EA5BFF4FF9
:103770000C942B2283B7806283BFC1BF3CC08FB53E
:1037800080688FBDDBBDCABD36C08FB580628FBD7E
:10379000D9BDC8BD30C08FB588608FBDD0937900CA
:1037A000C093780028C085B5806285BDC3BD23C0A5
:1037B00080918B00806880938B00D0938700C093AA
:1037C000860019C080918B00806280938B00D0931B
:1037D0008500C09384000FC080918B008860809327
:1037E0008B00D0938300C093820005C0C038D10500
:1037F0000CF0A8CFA2CFDF91CF911F91089590E058
:10380000FC013197EC30F10518F5EE5AFF4F0C949E
:103810002B228FB58F7702C08FB58F7D8FBD089516
:103820008FB5877FFBCF85B58F7D85BD089583B725
:103830008F7D83BF089580918B008F7707C0809123
:103840008B008F7D03C080918B00877F80938B00DE
:103850000895CF93DF9390E0FC01E55AFD4F24914A
:10386000FC01E057FD4F8491882361F190E0880FBF
:10387000991FFC01EB51FD4FC591D491FC01EB5216
:10388000FD4FA591B491611109C09FB7F89488814B
:10389000209582238883EC912E230BC0623061F443
:1038A0009FB7F8943881822F809583238883EC9189
:1038B0002E2B2C939FBF06C08FB7F894E8812E2B38
:1038C00028838FBFDF91CF9108951F93CF93DF930C
:1038D000282F30E0F901EA5DFD4F8491F901E55AA6
:1038E000FD4FD491F901E057FD4FC491CC23C9F0AD
:1038F000162F81110E94FF1BEC2FF0E0EE0FFF1F2F
:10390000EB52FD4FA591B4918FB7F894111105C0FA
:103910009C91ED2FE095E92302C0EC91ED2BEC9307
:103920008FBFDF91CF911F910895CF93DF93282F01
:1039300030E0F901EA5DFD4F8491F901E55AFD4F50
:10394000D491F901E057FD4FC491CC2391F081113E
:103950000E94FF1BEC2FF0E0EE0FFF1FEB53FD4F1B
:10396000A591B491EC91ED2381E090E021F480E009
:1039700002C080E090E0DF91CF910895FC01918D2D
:10398000228D892F90E0805C9F4F821B91098F735D
:1039900099270895FC01918D828D981731F0828DC1
:1039A000E80FF11D858D90E008958FEF9FEF08954A
:1039B000FC01918D828D981761F0828DDF01A80F37
:1039C000B11D5D968C91928D9F5F9F73928F90E059
:1039D00008958FEF9FEF08958AE59EE1892B41F0CE
:1039E00080E090E0892B21F00E945A1E81110DC0C9
:1039F00080E090E0892B71F080E090E0892B51F01D
:103A00000E940000811104C008950E940000F0CFC0
:103A10000C9400000895FC01848DDF01A80FB11DF6
:103A2000A35ABF4F2C91848D90E001968F739927F4
:103A3000848FA689B7892C93A089B1898C918064E1
:103A40008C93938D848D981306C00288F389E02DA2
:103A500080818F7D80830895CF93DF93EC01888DE3
:103A60008823C9F0EA89FB89808185FD05C0A88982
:103A7000B9898C9186FD0FC00FB607FCF5CF808108
:103A800085FFF2CFA889B9898C9185FFEDCFCE0152
:103A90000E940B1DE7CFDF91CF910895EF92FF9227
:103AA0000F931F93CF93DF93EC0181E0888F9B8D61
:103AB0008C8D981305C0E889F989808185FD24C023
:103AC000F62E0B8D10E00F5F1F4F0F731127E02EA6
:103AD0008C8DE8120CC00FB607FCFACFE889F98983
:103AE000808185FFF5CFCE010E940B1DF1CF8B8D1C
:103AF000FE01E80FF11DE35AFF4FF0820B8FEA89B8
:103B0000FB898081806207C0EE89FF896083E88934
:103B1000F98980818064808381E090E0DF91CF919A
:103B20001F910F91FF90EF900895CF92DF92EF9247
:103B3000FF921F93CF93DF93EC016A017B01122F59
:103B4000E889F98982E080834115514E610571054C
:103B5000B1F060E079E08DE390E0A70196010E946A
:103B60000922DA01C9010197A109B109B695A79502
:103B700097958795AC01411580E15807A8F0E88931
:103B8000F989108260E874E88EE190E0A70196015F
:103B90000E940922BA01A901415051096109710924
:103BA0007695679557954795EC85FD855083EE850D
:103BB000FF854083188EEC89FD891083EA89FB8993
:103BC000808180618083EA89FB898081886080832D
:103BD000EA89FB89808180688083EA89FB8980810A
:103BE0008F7D8083DF91CF911F91FF90EF90DF90C9
:103BF000CF9008951F920F920FB60F9211240BB61B
:103C00000F922F938F939F93EF93FF93E091D5079C
:103C1000F091D6078081E091DB07F091DC0782FD0F
:103C200012C090818091DE078F5F8F732091DF0734
:103C3000821751F0E091DE07F0E0EB53F84F958FDB
:103C40008093DE0701C08081FF91EF919F918F915A
:103C50002F910F900BBE0F900FBE0F901F901895D5
:103C60001F920F920FB60F9211240BB60F922F9343
:103C70003F934F935F936F937F938F939F93AF93F4
:103C8000BF93EF93FF9385EC97E00E940B1DFF918C
:103C9000EF91BF91AF919F918F917F916F915F91C4
:103CA0004F913F912F910F900BBE0F900FBE0F9031
:103CB0001F90189585EC97E00E94BE1C21E0892B8F
:103CC00009F420E0822F0895E5ECF7E013821282D8
:103CD00088EE93E0A0E0B0E084839583A683B78369
:103CE0008AEC94E09183808380E990E095878487D3
:103CF00089E290E0978786878BE290E0918B808BBA
:103D00008AE290E0938B828B85E990E0958B848B9F
:103D10008CE290E0978B868B118E128E138E148E10
:103D20000895CF92DF92EF92FF920F931F93CF935C
:103D3000DF936C017A018B01C0E0D0E0CE15DF0586
:103D400089F0D8016D918D01D601ED91FC91019022
:103D5000F081E02DC6010995892B11F47E0102C086
:103D60002196ECCFC701DF91CF911F910F91FF906A
:103D7000EF90DF90CF9008956115710579F0FB0108
:103D800001900020E9F73197AF01461B570BDC018A
:103D9000ED91FC910280F381E02D099480E090E0A8
:103DA0000895DC01ED91FC91DB0114964D915C913D
:103DB00015976D917C910280F381E02D09940C940C
:103DC000BC1EDC01ED91FC910190F081E02D099485
:103DD00066ED74E00C94BC1E0F931F93CF93DF939A
:103DE000EC010E94BC1E8C01CE010E94E81E800FD7
:103DF000911FDF91CF911F910F9108954F925F9284
:103E00006F927F92EF92FF920F931F93CF93DF9366
:103E1000CDB7DEB7A1970FB6F894DEBF0FBECDBF0A
:103E20007C01FA01CB0119A2223008F42AE08E01AC
:103E30000F5D1F4F422E512C612C712CBF01A3012D
:103E400092010E940922F901CA01015011096A3048
:103E500014F4605D01C0695CD8016C93232B242BA2
:103E6000252B61F7B801C7010E94BC1EA1960FB6B1
:103E7000F894DEBF0FBECDBFDF91CF911F910F91A0
:103E8000FF90EF907F906F905F904F900895CF924A
:103E9000DF92EF92FF920F931F93CF93DF93EC018A
:103EA0006A017B012115310579F4E881F9810190DE
:103EB000F081E02D642FDF91CF911F910F91FF9042
:103EC000EF90DF90CF9009942A303105E9F477FF25
:103ED0001AC06DE20E94E11E8C0144275527BA01E9
:103EE0004C195D096E097F092AE0CE010E94FE1E71
:103EF000800F911FDF91CF911F910F91FF90EF9055
:103F0000DF90CF9008952AE0B701A601CE01DF919E
:103F1000CF911F910F91FF90EF90DF90CF900C9475
:103F2000FE1E9A01AB01770F660B770B0C94471FAF
:103F30000F931F93CF93DF93EC019A01AB01770F9F
:103F4000660B770B0E94471F8C01CE010E94E81E72
:103F5000800F911FDF91CF911F910F91089521152F
:103F6000310541F4DC01ED91FC910190F081E02DEF
:103F7000642F09940C94FE1E9A01AB0160E070E07E
:103F80000C94AF1FFC01808191810C94E122CF93AE
:103F9000DF93EC0188819981009711F00E94E12262
:103FA000198218821D821C821B821A82DF91CF9196
:103FB00008950F931F93CF93DF93EC018B016F5FF5
:103FC0007F4F888199810E947923009731F09983EE
:103FD00088831B830A8381E001C080E0DF91CF9159
:103FE0001F910F910895CF93DF93EC018881998100
:103FF000892B29F08A819B818617970760F4CE016F
:104000000E94D91F882341F08C819D81892B19F44E
:10401000E881F981108281E0DF91CF910895EF92DC
:10402000FF920F931F93CF93DF93EC017B018A01E3
:10403000BA010E94F31F811104C0CE010E94C71F64
:1040400007C01D830C83B701888199810E94742465
:10405000CE01DF91CF911F910F91FF90EF900895C6
:10406000FC01118210821382128215821482611562
:10407000710551F0FB0101900020E9F73197AF0184
:10408000461B570B0C940F200895CF93DF93EC0140
:10409000FB018617970761F06081718161157105D9
:1040A00029F0448155810E940F2002C00E94C71F41
:1040B000CE01DF91CF910895FC011182108213820D
:1040C0001282158214820C944520CF93DF93DC0179
:1040D000ED91FC91EB01A881B981309711F0109717
:1040E000C9F4109759F0EB012C813D81232B31F05D
:1040F0008C9190E091958195910914C0309781F051
:10410000DC0114968D919C911597892B49F0808143
:1041100090E008C0BD01CF01DF91CF910C946B24DA
:1041200080E090E0DF91CF910895FC0144815581BA
:10413000FB01248135814217530729F40E94652031
:1041400021E0892B09F020E0822F089508950E9434
:104150004B1B0E94A6200E94240ACCEEDCE10E94A8
:10416000710A2097E1F30E94EC1CF9CF08950E9498
:10417000532188F09F5798F0B92F9927B751B0F085
:10418000E1F0660F771F881F991F1AF0BA95C9F7DB
:1041900014C0B13091F00E946D21B1E008950C94EB
:1041A0006D21672F782F8827B85F39F0B93FCCF39E
:1041B000869577956795B395D9F73EF49095809558
:1041C000709561957F4F8F4F9F4F0895E89409C078
:1041D00097FB3EF490958095709561957F4F8F4F3A
:1041E0009F4F9923A9F0F92F96E9BB279395F69550
:1041F000879577956795B795F111F8CFFAF4BB0FCE
:1042000011F460FF1BC06F5F7F4F8F4F9F4F16C031
:10421000882311F096E911C0772321F09EE8872FBB
:10422000762F05C0662371F096E8862F70E060E077
:104230002AF09A95660F771F881FDAF7880F9695F0
:10424000879597F9089597F99F6780E870E060E097
:1042500008959FEF80EC089500240A94161617061F
:1042600018060906089500240A9412161306140667
:1042700005060895092E0394000C11F4882352F0CA
:10428000BB0F40F4BF2B11F460FF04C06F5F7F4F82
:104290008F4F9F4F089557FD9058440F551F59F069
:1042A0005F3F71F04795880F97FB991F61F09F3F23
:1042B00079F087950895121613061406551FF2CF4C
:1042C0004695F1DF08C0161617061806991FF1CF9C
:1042D00086957105610508940895E894BB276627C3
:1042E0007727CB0197F908950E9487210C943A21F2
:1042F0000E942C2138F00E94332120F0952311F0E8
:104300000C9423210C94292111240C946E210E94D9
:104310004B2170F3959FC1F3950F50E0551F629F9D
:10432000F001729FBB27F00DB11D639FAA27F00D0E
:10433000B11DAA1F649F6627B00DA11D661F829F35
:104340002227B00DA11D621F739FB00DA11D621F1A
:10435000839FA00D611D221F749F3327A00D611D37
:10436000231F849F600D211D822F762F6A2F112419
:104370009F5750409AF0F1F088234AF0EE0FFF1F4C
:10438000BB1F661F771F881F91505040A9F79E3FA3
:10439000510580F00C9423210C946E215F3FE4F3CF
:1043A000983ED4F3869577956795B795F795E795F9
:1043B0009F5FC1F7FE2B880F911D9695879597F902
:1043C0000895AA1BBB1B51E107C0AA1FBB1FA6175C
:1043D000B70710F0A61BB70B881F991F5A95A9F7AE
:1043E00080959095BC01CD01089597FB072E16F49A
:1043F000009407D077FD09D00E94E12107FC05D089
:104400003EF4909581959F4F0895709561957F4FEB
:104410000895A1E21A2EAA1BBB1BFD010DC0AA1F05
:10442000BB1FEE1FFF1FA217B307E407F50720F01D
:10443000A21BB30BE40BF50B661F771F881F991F98
:104440001A9469F760957095809590959B01AC01E1
:10445000BD01CF010895EE0FFF1F0024001C0BBE0D
:104460000790F691E02D09940024A7FD00942A0FEF
:10447000301D401D501D601D701D801D901D089534
:104480000024A7FD00942A1730054005500560055B
:104490007005800590050895CF93DF9382309105D4
:1044A00010F482E090E0E0916408F091650820E06B
:1044B00030E0C0E0D0E0309711F1408151814817E1
:1044C0005907C0F04817590761F4828193812097FA
:1044D00019F09B838A832BC09093650880936408AE
:1044E00026C02115310519F04217530718F49A0117
:1044F000BE01DF01EF010280F381E02DDCCF211549
:10450000310509F1281B390B2430310590F412963E
:104510008D919C9113976115710521F0FB01938397
:10452000828304C09093650880936408FD013296ED
:1045300044C0FD01E20FF31F819391932250310992
:104540002D933C933AC02091620830916308232B4D
:1045500041F42091020130910301309363082093CC
:10456000620820910001309101012115310541F4CB
:104570002DB73EB74091040150910501241B350B26
:10458000E0916208F0916308E217F307A0F42E1B94
:104590003F0B2817390778F0AC014E5F5F4F2417A7
:1045A000350748F04E0F5F1F509363084093620831
:1045B0008193919302C0E0E0F0E0CF01DF91CF91D1
:1045C00008950F931F93CF93DF93009709F48CC046
:1045D000FC013297138212820091640810916508E1
:1045E0000115110581F420813181820F931F2091E3
:1045F0006208309163082817390779F5F09363084A
:10460000E093620871C0D80140E050E0AE17BF07E8
:1046100050F412962D913C911397AD01211531055F
:1046200009F1D901F3CF9D01DA013383228360813F
:104630007181860F971F8217930769F4EC01288117
:104640003981260F371F2E5F3F4F318320838A81A8
:104650009B8193838283452B29F4F0936508E09333
:10466000640842C01396FC93EE931297ED014991B2
:1046700059919E01240F351FE217F30771F48081D1
:104680009181840F951F029611969C938E9382813F
:10469000938113969C938E931297E0E0F0E0D801FB
:1046A00012968D919C911397009719F0F8018C0147
:1046B000F6CF8D919C9198012E5F3F4F820F931FF3
:1046C00020916208309163082817390769F4309700
:1046D00029F4109265081092640802C013821282B5
:1046E0001093630800936208DF91CF911F910F919F
:1046F00008956F927F928F929F92AF92BF92CF92C6
:10470000DF92EF92FF920F931F93CF93DF93EC0111
:10471000009789F4CB01DF91CF911F910F91FF900A
:10472000EF90DF90CF90BF90AF909F908F907F9051
:104730006F900C944C22FC01E60FF71F9C01225055
:104740003109E217F30708F4ACC0D9010D911C91AF
:10475000119706171707B0F00530110508F49FC030
:10476000C80104978617970708F499C002501109E9
:10477000061B170B019311936D937C93CF010E943D
:10478000E1228DC05B01A01AB10A4C01800E911E7E
:10479000A0916408B091650840E050E0E12CF12C54
:1047A000109709F44AC0A815B905D1F56D907C9011
:1047B0001197630182E0C80ED11CCA14DB0480F19A
:1047C000A3014A195B096A0182E0C80ED11C129646
:1047D000BC9012971396AC91B5E0CB16D10440F083
:1047E000B282A38351834083D9016D937C930AC025
:1047F0000E5F1F4FC301800F911FF90191838083CA
:10480000EB2DFA2FE114F10431F0D7011396FC934C
:10481000EE93129744C0F0936508E09364083FC09C
:104820008D919C9111974817590708F4AC017D01AF
:1048300012960D90BC91A02DB3CF809162089091FB
:10484000630888159905E1F446175707C8F4809165
:10485000000190910101009741F48DB79EB74091FE
:10486000040150910501841B950BE817F907C8F462
:10487000F0936308E0936208F901718360830FC0CD
:10488000CB010E944C227C01009759F0A801BE0187
:104890000E946224CE010E94E122C70104C0CE0121
:1048A00002C080E090E0DF91CF911F910F91FF90C7
:1048B000EF90DF90CF90BF90AF909F908F907F90C0
:1048C0006F900895FB01DC0102C001900D924150F0
:1048D0005040D8F70895FB01DC018D9101908019BB
:1048E0000110D9F3990B0895FB01DC0101900D92A1
:1048F0000020E1F70895A8E1B0E042E050E00C9418
:1049000088240E949624272F0C949724DC01CB0145
:10491000FC01E199FECF06C0FFBBEEBBE09A3196E9
:104920000DB20D9241505040B8F70895262FE199ED
:10493000FECF9FBB8EBB2DBB0FB6F894E29AE19AD7
:104940000FBE0196089511E0C0E8D1E004C0FE0159
:104950000E942B222196C138D107C9F7F894FFCFC6
:10496000000066088000010002000300040005004A
:10497000080007000C000F000E000D0002000100EF
:10498000020152756E6E696E670053746F70207409
:104990006F2072657475726E0055706C6F6164651E
:1049A00064005455524E204F4E2053454E534F52A3
:1049B0005321005374617274202D3E2052756E4D48
:1049C000656E750053746F70202D3E20436F6E4DE1
:1049D000656E7500456E746572696E6700436F6E33
:1049E000666967206D656E750053657420746F206D
:1049F000003F004C656176696E67206D656E7500DD
:104A000052756E206D656E750073656C65637420FC
:104A10002D3E20737461727400476F696E67206861
:104A20006F6D65004D6F746F7253706565640050F3
:104A30002D6761696E00442D6761696E00504944BD
:104A40002D74687265736800436C69666654687299
:104A50006573680044656C61792F646567540077FD
:104A6000696E63685553706565640077696E636845
:104A700044537065656400636C6177495254687291
:104A800065004C5369646554687265730052756EB5
:104A900020426F740052756E2053656E736F7220E2
:104AA000546573740052756E2053797374656D206C
:104AB000546573740052756E20446961676F6E6946
:104AC000737469637300446961676E6F73746963BB
:104AD000730045786974202D3E20486F6C645374D0
:104AE0006F7000546F702068616C6C3A2000426FE8
:104AF00074746F6D2068616C6C3A20004C6566744C
:104B000020546F7563683A200052696768742054B6
:104B10006F7563683A2000466172205152443A2012
:104B2000004E656172205152443A2000436C696620
:104B300066205152443A2000436C61772049523A32
:104B400020004C656176696E672000446961676E7C
:104B50006F7369746373004661725152443A200066
:104B60004E6561725152443A2000436C6966665149
:104B700052443A2000536964655152443A2000433C
:104B80006C617749523A2000436F6D20496E3A209C
:104B9000005049442051524400515244277300436D
:104BA0006C69666620515244005369646520515215
:104BB0004400436C6177204952200044657465636A
:104BC000746F7200546F7563682053656E736F72F3
:104BD0000054657374696E6720636F6D496E004C95
:104BE000656176696E672053656E736F72005265FA
:104BF0007365740044756D70004952205472696782
:104C000067657265643A20004465706C6F7900577F
:104C100061726E696E67206D6F746F72732121000F
:104C2000546573742044756D7020416C69676E0023
:104C30005465737420436C617720426F74746F6D98
:104C400000436C6177206272696467650064726F0B
:104C50007020706F736974696F6E0054657374208F
:104C6000436C617720546F7000526576657273658E
:104C70000054657374204C656674205377656570C5
:104C8000005741524E494E47204D4F544F5253000A
:104C9000696E2033207365630054657374696E67B1
:104CA000207475726E696E67007374617274202D62
:104CB0003E206E65787400486172642073746F7072
:104CC0000054657374696E67204272696467650099
:104CD00054657374696E672044756D706572004C1D
:104CE000656176696E672073797374656D007465AC
:104CF0007374696E670005000400010000001D0068
:104D00001E00240025001800190026002700FFFFC0
:104D1000FFFFFFFFFFFFFFFFFFFF06000700000090
:104D200000004F18911E000000004E1D911EBE1C79
:104D3000D81CCA1C2C1D0D0A006E616E00696E66BF
:064D4000006F7666000022
:00000001FF
